:020000020000FC
:1000000000C000E10EBF0FEF0DBF01E004BBA89AD6
:1000100014D004D030D00AD01DD0FCCFF0E0E4E9F9
:100020000591002311F016D0FBCF0895A8982AD08F
:1000300029D028D027D0A89A089510E00FE2109375
:1000400098000093990008E100939A0006E000935D
:100050009D00089510919B0015FFFCCF00939C001C
:100060000D3009F0089510919B0015FFFCCF0AE0B8
:1000700000939C00089510919B0017FFFCCF009106
:100080009C0008952AE081E397E00197F1F72A9513
:10009000D1F708955253323332204563686F2053AD
:1000A0006572766572202841546D6567613132381A
:1000B000412C2055534152543129200D5374617401
:1000C00075733A20416374697665200D4545434553
:1000D000333632342C20537072696E6720323032DE
:1000E00031200D0D426567696E20747970696E6705
:1000F00020696E2074686520617265612062656C9C
:100100006F772E0D4C4544302077696C6C20626C03
:10011000696E6B207768656E20796F7520747970D1
:10012000652061206368617261637465722E200DC1
:020130000D00C0
:00000001FF
